{
  "contractName": "IOUTokenFiat",
  "abi": [
    {
      "constant": true,
      "inputs": [],
      "name": "name",
      "outputs": [
        {
          "name": "",
          "type": "string"
        }
      ],
      "payable": false,
      "stateMutability": "view",
      "type": "function"
    },
    {
      "constant": false,
      "inputs": [
        {
          "name": "_spender",
          "type": "address"
        },
        {
          "name": "_value",
          "type": "uint256"
        }
      ],
      "name": "approve",
      "outputs": [
        {
          "name": "success",
          "type": "bool"
        }
      ],
      "payable": false,
      "stateMutability": "nonpayable",
      "type": "function"
    },
    {
      "constant": true,
      "inputs": [],
      "name": "backer",
      "outputs": [
        {
          "name": "",
          "type": "address"
        }
      ],
      "payable": false,
      "stateMutability": "view",
      "type": "function"
    },
    {
      "constant": true,
      "inputs": [],
      "name": "totalSupply",
      "outputs": [
        {
          "name": "",
          "type": "uint256"
        }
      ],
      "payable": false,
      "stateMutability": "view",
      "type": "function"
    },
    {
      "constant": false,
      "inputs": [
        {
          "name": "_from",
          "type": "address"
        },
        {
          "name": "_to",
          "type": "address"
        },
        {
          "name": "_value",
          "type": "uint256"
        }
      ],
      "name": "transferFrom",
      "outputs": [
        {
          "name": "",
          "type": "bool"
        }
      ],
      "payable": false,
      "stateMutability": "nonpayable",
      "type": "function"
    },
    {
      "constant": true,
      "inputs": [
        {
          "name": "",
          "type": "address"
        }
      ],
      "name": "balances",
      "outputs": [
        {
          "name": "amount",
          "type": "uint256"
        },
        {
          "name": "lastUpdated",
          "type": "uint256"
        }
      ],
      "payable": false,
      "stateMutability": "view",
      "type": "function"
    },
    {
      "constant": true,
      "inputs": [],
      "name": "decimals",
      "outputs": [
        {
          "name": "",
          "type": "uint8"
        }
      ],
      "payable": false,
      "stateMutability": "view",
      "type": "function"
    },
    {
      "constant": false,
      "inputs": [
        {
          "name": "_amount",
          "type": "uint256"
        }
      ],
      "name": "repay",
      "outputs": [
        {
          "name": "",
          "type": "bool"
        }
      ],
      "payable": false,
      "stateMutability": "nonpayable",
      "type": "function"
    },
    {
      "constant": true,
      "inputs": [],
      "name": "expiryDate",
      "outputs": [
        {
          "name": "",
          "type": "uint256"
        }
      ],
      "payable": false,
      "stateMutability": "view",
      "type": "function"
    },
    {
      "constant": true,
      "inputs": [
        {
          "name": "",
          "type": "address"
        },
        {
          "name": "",
          "type": "address"
        }
      ],
      "name": "allowances",
      "outputs": [
        {
          "name": "",
          "type": "uint256"
        }
      ],
      "payable": false,
      "stateMutability": "view",
      "type": "function"
    },
    {
      "constant": true,
      "inputs": [],
      "name": "apr",
      "outputs": [
        {
          "name": "",
          "type": "uint256"
        }
      ],
      "payable": false,
      "stateMutability": "view",
      "type": "function"
    },
    {
      "constant": true,
      "inputs": [
        {
          "name": "_owner",
          "type": "address"
        }
      ],
      "name": "balanceOf",
      "outputs": [
        {
          "name": "",
          "type": "uint256"
        }
      ],
      "payable": false,
      "stateMutability": "view",
      "type": "function"
    },
    {
      "constant": true,
      "inputs": [],
      "name": "symbol",
      "outputs": [
        {
          "name": "",
          "type": "string"
        }
      ],
      "payable": false,
      "stateMutability": "view",
      "type": "function"
    },
    {
      "constant": false,
      "inputs": [
        {
          "name": "_to",
          "type": "address"
        },
        {
          "name": "_amount",
          "type": "uint256"
        }
      ],
      "name": "transfer",
      "outputs": [
        {
          "name": "success",
          "type": "bool"
        }
      ],
      "payable": false,
      "stateMutability": "nonpayable",
      "type": "function"
    },
    {
      "constant": true,
      "inputs": [
        {
          "name": "_owner",
          "type": "address"
        },
        {
          "name": "_spender",
          "type": "address"
        }
      ],
      "name": "allowance",
      "outputs": [
        {
          "name": "remaining",
          "type": "uint256"
        }
      ],
      "payable": false,
      "stateMutability": "view",
      "type": "function"
    },
    {
      "constant": true,
      "inputs": [
        {
          "name": "_person",
          "type": "address"
        }
      ],
      "name": "calculateInterest",
      "outputs": [
        {
          "name": "interest",
          "type": "uint256"
        }
      ],
      "payable": false,
      "stateMutability": "view",
      "type": "function"
    },
    {
      "inputs": [
        {
          "name": "_name",
          "type": "string"
        },
        {
          "name": "_symbol",
          "type": "string"
        },
        {
          "name": "_apr",
          "type": "uint256"
        },
        {
          "name": "_totalSupply",
          "type": "uint256"
        },
        {
          "name": "_yearsTillExpiry",
          "type": "uint256"
        }
      ],
      "payable": false,
      "stateMutability": "nonpayable",
      "type": "constructor"
    },
    {
      "anonymous": false,
      "inputs": [
        {
          "indexed": true,
          "name": "_from",
          "type": "address"
        },
        {
          "indexed": true,
          "name": "_to",
          "type": "address"
        },
        {
          "indexed": false,
          "name": "_value",
          "type": "uint256"
        }
      ],
      "name": "Transfer",
      "type": "event"
    },
    {
      "anonymous": false,
      "inputs": [
        {
          "indexed": true,
          "name": "_owner",
          "type": "address"
        },
        {
          "indexed": true,
          "name": "_spender",
          "type": "address"
        },
        {
          "indexed": false,
          "name": "_value",
          "type": "uint256"
        }
      ],
      "name": "Approval",
      "type": "event"
    }
  ],
  "bytecode": "0x60606040526002600560006101000a81548160ff021916908360ff16021790555034156200002c57600080fd5b60405162001579380380620015798339810160405280805182019190602001805182019190602001805190602001909190805190602001909190805190602001909190505032600260006101000a81548173ffffffffffffffffffffffffffffffffffffffff021916908373ffffffffffffffffffffffffffffffffffffffff1602179055508460009080519060200190620000ca92919062000199565b508360019080519060200190620000e392919062000199565b5081600881905550826003819055506301e133808102420160048190555060408051908101604052808381526020014281525060066000600260009054906101000a900473ffffffffffffffffffffffffffffffffffffffff1673ffffffffffffffffffffffffffffffffffffffff1673ffffffffffffffffffffffffffffffffffffffff1681526020019081526020016000206000820151816000015560208201518160010155905050505050505062000248565b828054600181600116156101000203166002900490600052602060002090601f016020900481019282601f10620001dc57805160ff19168380011785556200020d565b828001600101855582156200020d579182015b828111156200020c578251825591602001919060010190620001ef565b5b5090506200021c919062000220565b5090565b6200024591905b808211156200024157600081600090555060010162000227565b5090565b90565b61132180620002586000396000f3006060604052600436106100e6576000357c0100000000000000000000000000000000000000000000000000000000900463ffffffff16806306fdde03146100eb578063095ea7b314610179578063143eef54146101d357806318160ddd1461022857806323b872dd1461025157806327e235e3146102ca578063313ce5671461031e578063371fd8e61461034d578063516dde431461038857806355b6ed5c146103b157806357ded9c91461041d57806370a082311461044657806395d89b4114610493578063a9059cbb14610521578063dd62ed3e1461057b578063e11932cf146105e7575b600080fd5b34156100f657600080fd5b6100fe610634565b6040518080602001828103825283818151815260200191508051906020019080838360005b8381101561013e578082015181840152602081019050610123565b50505050905090810190601f16801561016b5780820380516001836020036101000a031916815260200191505b509250505060405180910390f35b341561018457600080fd5b6101b9600480803573ffffffffffffffffffffffffffffffffffffffff169060200190919080359060200190919050506106d2565b604051808215151515815260200191505060405180910390f35b34156101de57600080fd5b6101e66107c4565b604051808273ffffffffffffffffffffffffffffffffffffffff1673ffffffffffffffffffffffffffffffffffffffff16815260200191505060405180910390f35b341561023357600080fd5b61023b6107ea565b6040518082815260200191505060405180910390f35b341561025c57600080fd5b6102b0600480803573ffffffffffffffffffffffffffffffffffffffff1690602001909190803573ffffffffffffffffffffffffffffffffffffffff169060200190919080359060200190919050506107f0565b604051808215151515815260200191505060405180910390f35b34156102d557600080fd5b610301600480803573ffffffffffffffffffffffffffffffffffffffff1690602001909190505061091b565b604051808381526020018281526020019250505060405180910390f35b341561032957600080fd5b61033161093f565b604051808260ff1660ff16815260200191505060405180910390f35b341561035857600080fd5b61036e6004808035906020019091905050610952565b604051808215151515815260200191505060405180910390f35b341561039357600080fd5b61039b610ac5565b6040518082815260200191505060405180910390f35b34156103bc57600080fd5b610407600480803573ffffffffffffffffffffffffffffffffffffffff1690602001909190803573ffffffffffffffffffffffffffffffffffffffff16906020019091905050610acb565b6040518082815260200191505060405180910390f35b341561042857600080fd5b610430610af0565b6040518082815260200191505060405180910390f35b341561045157600080fd5b61047d600480803573ffffffffffffffffffffffffffffffffffffffff16906020019091905050610af6565b6040518082815260200191505060405180910390f35b341561049e57600080fd5b6104a6610bed565b6040518080602001828103825283818151815260200191508051906020019080838360005b838110156104e65780820151818401526020810190506104cb565b50505050905090810190601f1680156105135780820380516001836020036101000a031916815260200191505b509250505060405180910390f35b341561052c57600080fd5b610561600480803573ffffffffffffffffffffffffffffffffffffffff16906020019091908035906020019091905050610c8b565b604051808215151515815260200191505060405180910390f35b341561058657600080fd5b6105d1600480803573ffffffffffffffffffffffffffffffffffffffff1690602001909190803573ffffffffffffffffffffffffffffffffffffffff16906020019091905050610ca0565b6040518082815260200191505060405180910390f35b34156105f257600080fd5b61061e600480803573ffffffffffffffffffffffffffffffffffffffff16906020019091905050610d27565b6040518082815260200191505060405180910390f35b60008054600181600116156101000203166002900480601f0160208091040260200160405190810160405280929190818152602001828054600181600116156101000203166002900480156106ca5780601f1061069f576101008083540402835291602001916106ca565b820191906000526020600020905b8154815290600101906020018083116106ad57829003601f168201915b505050505081565b600081600760003373ffffffffffffffffffffffffffffffffffffffff1673ffffffffffffffffffffffffffffffffffffffff16815260200190815260200160002060008573ffffffffffffffffffffffffffffffffffffffff1673ffffffffffffffffffffffffffffffffffffffff168152602001908152602001600020819055508273ffffffffffffffffffffffffffffffffffffffff163373ffffffffffffffffffffffffffffffffffffffff167f8c5be1e5ebec7d5bd14f71427d1e84f3dd0314c0f7b2291e5b200ac8c7c3b925846040518082815260200191505060405180910390a36001905092915050565b600260009054906101000a900473ffffffffffffffffffffffffffffffffffffffff1681565b60085481565b600081600760003373ffffffffffffffffffffffffffffffffffffffff1673ffffffffffffffffffffffffffffffffffffffff16815260200190815260200160002060008673ffffffffffffffffffffffffffffffffffffffff1673ffffffffffffffffffffffffffffffffffffffff168152602001908152602001600020541015151561087d57600080fd5b81600760003373ffffffffffffffffffffffffffffffffffffffff1673ffffffffffffffffffffffffffffffffffffffff16815260200190815260200160002060008673ffffffffffffffffffffffffffffffffffffffff1673ffffffffffffffffffffffffffffffffffffffff16815260200190815260200160002060008282540392505081905550610912848484610dde565b90509392505050565b60066020528060005260406000206000915090508060000154908060010154905082565b600560009054906101000a900460ff1681565b6000600260009054906101000a900473ffffffffffffffffffffffffffffffffffffffff1673ffffffffffffffffffffffffffffffffffffffff163373ffffffffffffffffffffffffffffffffffffffff16141515156109b157600080fd5b6109ba33610fea565b5081600660003373ffffffffffffffffffffffffffffffffffffffff1673ffffffffffffffffffffffffffffffffffffffff1681526020019081526020016000206000015410151515610a0c57600080fd5b81600660003373ffffffffffffffffffffffffffffffffffffffff1673ffffffffffffffffffffffffffffffffffffffff168152602001908152602001600020600001600082825403925050819055508160086000828254039250508190555060003373ffffffffffffffffffffffffffffffffffffffff167fddf252ad1be2c89b69c2b068fc378daa952ba7f163c4a11628f55a4df523b3ef846040518082815260200191505060405180910390a360019050919050565b60045481565b6007602052816000526040600020602052806000526040600020600091509150505481565b60035481565b6000600260009054906101000a900473ffffffffffffffffffffffffffffffffffffffff1673ffffffffffffffffffffffffffffffffffffffff168273ffffffffffffffffffffffffffffffffffffffff161415610b9857600660008373ffffffffffffffffffffffffffffffffffffffff1673ffffffffffffffffffffffffffffffffffffffff168152602001908152602001600020600001549050610be8565b610ba182610d27565b600660008473ffffffffffffffffffffffffffffffffffffffff1673ffffffffffffffffffffffffffffffffffffffff168152602001908152602001600020600001540190505b919050565b60018054600181600116156101000203166002900480601f016020809104026020016040519081016040528092919081815260200182805460018160011615610100020316600290048015610c835780601f10610c5857610100808354040283529160200191610c83565b820191906000526020600020905b815481529060010190602001808311610c6657829003601f168201915b505050505081565b6000610c98338484610dde565b905092915050565b6000600760008473ffffffffffffffffffffffffffffffffffffffff1673ffffffffffffffffffffffffffffffffffffffff16815260200190815260200160002060008373ffffffffffffffffffffffffffffffffffffffff1673ffffffffffffffffffffffffffffffffffffffff16815260200190815260200160002054905092915050565b6000610d316112db565b600080600660008673ffffffffffffffffffffffffffffffffffffffff1673ffffffffffffffffffffffffffffffffffffffff168152602001908152602001600020604080519081016040529081600082015481526020016001820154815250509250600354618e94811515610da357fe5b0491506201518083602001514203811515610dba57fe5b0490508260000151610dd3846000015184846014611273565b039350505050919050565b6000610de984610fea565b50610df383610fea565b5081600660008673ffffffffffffffffffffffffffffffffffffffff1673ffffffffffffffffffffffffffffffffffffffff1681526020019081526020016000206000015410151515610e4557600080fd5b600660008473ffffffffffffffffffffffffffffffffffffffff1673ffffffffffffffffffffffffffffffffffffffff1681526020019081526020016000206000015482600660008673ffffffffffffffffffffffffffffffffffffffff1673ffffffffffffffffffffffffffffffffffffffff168152602001908152602001600020600001540110151515610eda57600080fd5b81600660008673ffffffffffffffffffffffffffffffffffffffff1673ffffffffffffffffffffffffffffffffffffffff1681526020019081526020016000206000016000828254039250508190555081600660008573ffffffffffffffffffffffffffffffffffffffff1673ffffffffffffffffffffffffffffffffffffffff168152602001908152602001600020600001600082825401925050819055508273ffffffffffffffffffffffffffffffffffffffff168473ffffffffffffffffffffffffffffffffffffffff167fddf252ad1be2c89b69c2b068fc378daa952ba7f163c4a11628f55a4df523b3ef846040518082815260200191505060405180910390a3600190509392505050565b60008060045442111561103257600260009054906101000a900473ffffffffffffffffffffffffffffffffffffffff1673ffffffffffffffffffffffffffffffffffffffff16ff5b600260009054906101000a900473ffffffffffffffffffffffffffffffffffffffff1673ffffffffffffffffffffffffffffffffffffffff168373ffffffffffffffffffffffffffffffffffffffff1614156110d257600660008473ffffffffffffffffffffffffffffffffffffffff1673ffffffffffffffffffffffffffffffffffffffff16815260200190815260200160002060000154915061126d565b6110db83610d27565b9050600081141561113057600660008473ffffffffffffffffffffffffffffffffffffffff1673ffffffffffffffffffffffffffffffffffffffff16815260200190815260200160002060000154915061126d565b80600660008573ffffffffffffffffffffffffffffffffffffffff1673ffffffffffffffffffffffffffffffffffffffff1681526020019081526020016000206000016000828254019250508190555042600660008573ffffffffffffffffffffffffffffffffffffffff1673ffffffffffffffffffffffffffffffffffffffff16815260200190815260200160002060010181905550806008600082825401925050819055508273ffffffffffffffffffffffffffffffffffffffff1660007fddf252ad1be2c89b69c2b068fc378daa952ba7f163c4a11628f55a4df523b3ef836040518082815260200191505060405180910390a3600660008473ffffffffffffffffffffffffffffffffffffffff1673ffffffffffffffffffffffffffffffffffffffff1681526020019081526020016000206000015491505b50919050565b60008060008060008093506001925060019150600090505b858110156112cc5780880a82848b028115156112a357fe5b048115156112ad57fe5b048401935080870383029250600181018202915080600101905061128b565b83945050505050949350505050565b6040805190810160405280600081526020016000815250905600a165627a7a723058207e00e1bc133ec331115c26edebec1262412fda0c3ea2a0b7c79bd1e03a06e9590029",
  "source": "pragma solidity ^0.4.18;\n\n/* An fungible ERC-20 token for personal bonds resolved via fiat */\ncontract IOUTokenFiat {\n\n\tevent Transfer(address indexed _from, address indexed _to, uint _value);\n\tevent Approval(address indexed _owner, address indexed _spender, uint _value);\n\n\tstruct Balance {\n\t\tuint amount;\n\t\tuint lastUpdated;\n\t}\n\t\n\tstring public name;\n\tstring public symbol;\n\taddress public backer;\n\tuint public apr;\n\tuint public expiryDate;\n\tuint8 public decimals = 2;\n\tmapping (address => Balance) public balances;\n\tmapping (address => mapping(address => uint)) public allowances;\n\tuint public totalSupply;\n\n\t/* Instantiates token */\n\tfunction IOUTokenFiat (\n\t\tstring _name, string _symbol, uint _apr, uint _totalSupply, uint _yearsTillExpiry\n\t\t) public {\n\n\t\tbacker = tx.origin;\n\t\tname = _name;\n\t\tsymbol = _symbol;\n\t\ttotalSupply = _totalSupply;\n\t\tapr = _apr;\n\t\texpiryDate = block.timestamp + _yearsTillExpiry * 1 years;\n\t\tbalances[backer] = Balance(_totalSupply, block.timestamp);\n\n\t}\n\n/* Approximates `k * (1 + 1/q)^n` through laurent series expansion \n\t with p terms. Centered at infty, converges for all q != 0.\n\t*/ \n\tfunction _fracExp(uint k, uint q, uint n, uint p) internal pure returns (uint) {\n\t  uint s = 0;\n\t  uint N = 1;\n\t  uint B = 1;\n\t  for (uint i = 0; i < p; ++i){\n\t    s += k * N / B / (q**i);\n\t    N  = N * (n-i);\n\t    B  = B * (i+1);\n\t  }\n\t  return s;\n\t}\n\n\tfunction calculateInterest(address _person) public view returns (uint interest) {\n\t\tBalance memory b = balances[_person];\n\t\t\t\n\t\tuint inverseRate = 365 * 100 / apr;\n\t\tuint numCompounds = (block.timestamp - b.lastUpdated) / (1 days);\n\n\t\treturn _fracExp(b.amount, inverseRate, numCompounds, 20) - b.amount;\n\t}\n\n\tfunction updateBalance(address _person) internal returns (uint newBalance) {\n\t\tif (block.timestamp > expiryDate) {\n\t\t\tselfdestruct(backer);\n\t\t}\n\n\t\tif (_person == backer){\n\t\t\treturn balances[_person].amount;\n\t\t}\n\n\t\tuint interest = calculateInterest(_person);\n\n\t\t// dont update lastUpdated date if interest < 1 to limit rounding error\n\t\tif (interest == 0) \n\t\t\treturn balances[_person].amount;\n\n\t\tbalances[_person].amount += interest;\n\t\tbalances[_person].lastUpdated = block.timestamp; \n\t\ttotalSupply += interest;\n\t\tTransfer(0x0, _person, interest); // tokens created\n\t\treturn balances[_person].amount;\n\t}\n\n\tfunction balanceOf(address _owner) public constant returns (uint){\n\t\tif (_owner == backer)\n\t\t\treturn balances[_owner].amount;\n\n\t\treturn balances[_owner].amount + calculateInterest(_owner);\n\t}\n\n\tfunction transfer(address _to, uint _amount) public returns (bool success){\n\t\treturn _transfer(msg.sender, _to, _amount);\n\t}\n\n\tfunction _transfer(address _from, address _to, uint _amount) internal returns (bool success) {\n\t\t// update balance of sender in case the interest is necessary \n\t\t// to have sufficient funds for transaction\n\t\tupdateBalance(_from);\n\t\t// update balance of receiver so that interest on old funds is brought up\n\t\t// to date and interest on added funds is calculated from current time \n\t\tupdateBalance(_to);\n\t\t// check if sender has sufficient balance\n\t\trequire(balances[_from].amount >= _amount);\n\t\t//check for uint overflow\n\t\trequire(balances[_to].amount + _amount >= balances[_to].amount);\n\n\t\tbalances[_from].amount -= _amount;\n\t\tbalances[_to].amount += _amount;\n\n\t\tTransfer(_from, _to, _amount);\n\t\treturn true;\n\t}\n\n\tfunction repay(uint _amount) public returns (bool){\n\t\trequire(msg.sender != backer);\n\t\tupdateBalance(msg.sender);\n\t\trequire(balances[msg.sender].amount >= _amount);\n\n\t\tbalances[msg.sender].amount -= _amount;\n\t\ttotalSupply -= _amount;\n\t\tTransfer(msg.sender, 0x0, _amount);\n\t\treturn true;\n\t}\n\n\tfunction transferFrom(address _from, address _to, uint _value) public returns (bool){\n\t\t// check if user has allowance to send from `_from`\n\t\trequire(allowances[msg.sender][_from] >= _value); \n\t\tallowances[msg.sender][_from] -= _value;\n\n\t\treturn _transfer(_from, _to, _value);\n\t}\n\n\tfunction approve(address _spender, uint256 _value) public returns (bool success){\n\t\tallowances[msg.sender][_spender] = _value;\n\t\tApproval(msg.sender, _spender, _value);\n\t\treturn true;\n\t}\n\n\tfunction allowance(address _owner, address _spender) public constant returns (uint remaining){\n\t\treturn allowances[_owner][_spender];\n\t}\n\n}\n",
  "sourcePath": "/Users/rohanp/Library/Mobile Documents/com~apple~CloudDocs/hack/IOUToken/contracts/IOUTokenFiat.sol",
  "compiler": {
    "name": "solc",
    "version": "0.4.18+commit.9cf6e910.Emscripten.clang"
  },
  "schemaVersion": "1.0.1",
  "updatedAt": "2018-01-03T21:27:49.816Z"
}