{
  "contractName": "Token",
  "abi": [
    {
      "constant": true,
      "inputs": [
        {
          "name": "",
          "type": "address"
        }
      ],
      "name": "balances",
      "outputs": [
        {
          "name": "amount",
          "type": "uint256"
        },
        {
          "name": "lastUpdated",
          "type": "uint256"
        }
      ],
      "payable": false,
      "stateMutability": "view",
      "type": "function"
    },
    {
      "anonymous": false,
      "inputs": [
        {
          "indexed": true,
          "name": "_from",
          "type": "address"
        },
        {
          "indexed": true,
          "name": "_to",
          "type": "address"
        },
        {
          "indexed": false,
          "name": "_value",
          "type": "uint256"
        }
      ],
      "name": "Transfer",
      "type": "event"
    }
  ],
  "bytecode": "0x6060604052341561000f57600080fd5b60e58061001d6000396000f300606060405260043610603f576000357c0100000000000000000000000000000000000000000000000000000000900463ffffffff16806327e235e3146044575b600080fd5b3415604e57600080fd5b6078600480803573ffffffffffffffffffffffffffffffffffffffff169060200190919050506095565b604051808381526020018281526020019250505060405180910390f35b600060205280600052604060002060009150905080600001549080600101549050825600a165627a7a72305820b4b099fb7025bf97e98a715f768fac265d598835624e0030b3d06f4ed30f87250029",
  "source": "pragma solidity ^0.4.18;\n\ncontract Token {\n\n    event Transfer(address indexed _from, address indexed _to, uint _value);\n\n    struct Balance {\n        uint amount;\n        uint lastUpdated;\n    }\n\n    mapping (address => Balance) public balances;\n\n\n    function _transfer(address _from, address _to, uint _amount) internal returns (bool success) {\n\n            // check if sender has sufficient balance\n            require(balances[_from].amount >= _amount);\n            //check for uint overflow\n            require(balances[_to].amount + _amount > balances[_to].amount);\n\n            balances[_from].amount -= _amount;\n            balances[_to].amount += _amount;\n\n            Transfer(_from, _to, _amount);\n            return true;\n        }\n}",
  "sourcePath": "/Users/rohanp/Library/Mobile Documents/com~apple~CloudDocs/hack/IOUToken/contracts/token.sol",
  "compiler": {
    "name": "solc",
    "version": "0.4.18+commit.9cf6e910.Emscripten.clang"
  },
  "schemaVersion": "1.0.1",
  "updatedAt": "2017-12-31T23:42:27.086Z"
}